{
  "contractName": "AntiFake_test",
  "abi": [
    {
      "anonymous": false,
      "inputs": [
        {
          "indexed": true,
          "internalType": "uint256",
          "name": "productId",
          "type": "uint256"
        }
      ],
      "name": "ProductAccepted",
      "type": "event"
    },
    {
      "anonymous": false,
      "inputs": [
        {
          "indexed": true,
          "internalType": "uint256",
          "name": "productId",
          "type": "uint256"
        },
        {
          "indexed": false,
          "internalType": "string",
          "name": "name",
          "type": "string"
        },
        {
          "indexed": false,
          "internalType": "string",
          "name": "manufacturer",
          "type": "string"
        },
        {
          "indexed": false,
          "internalType": "string",
          "name": "details",
          "type": "string"
        }
      ],
      "name": "ProductAdded",
      "type": "event"
    },
    {
      "anonymous": false,
      "inputs": [
        {
          "indexed": true,
          "internalType": "uint256",
          "name": "productId",
          "type": "uint256"
        }
      ],
      "name": "ProductRejected",
      "type": "event"
    },
    {
      "constant": true,
      "inputs": [
        {
          "internalType": "uint256",
          "name": "",
          "type": "uint256"
        }
      ],
      "name": "products",
      "outputs": [
        {
          "internalType": "uint256",
          "name": "id",
          "type": "uint256"
        },
        {
          "internalType": "string",
          "name": "name",
          "type": "string"
        },
        {
          "internalType": "string",
          "name": "manufacturer",
          "type": "string"
        },
        {
          "internalType": "string",
          "name": "details",
          "type": "string"
        },
        {
          "internalType": "bool",
          "name": "accepted",
          "type": "bool"
        },
        {
          "internalType": "bool",
          "name": "rejected",
          "type": "bool"
        }
      ],
      "payable": false,
      "stateMutability": "view",
      "type": "function"
    },
    {
      "constant": true,
      "inputs": [],
      "name": "productsCount",
      "outputs": [
        {
          "internalType": "uint256",
          "name": "",
          "type": "uint256"
        }
      ],
      "payable": false,
      "stateMutability": "view",
      "type": "function"
    },
    {
      "constant": true,
      "inputs": [
        {
          "internalType": "address",
          "name": "",
          "type": "address"
        }
      ],
      "name": "voters",
      "outputs": [
        {
          "internalType": "bool",
          "name": "",
          "type": "bool"
        }
      ],
      "payable": false,
      "stateMutability": "view",
      "type": "function"
    },
    {
      "constant": false,
      "inputs": [
        {
          "internalType": "string",
          "name": "name",
          "type": "string"
        },
        {
          "internalType": "string",
          "name": "manufacturer",
          "type": "string"
        },
        {
          "internalType": "string",
          "name": "details",
          "type": "string"
        }
      ],
      "name": "addProduct",
      "outputs": [],
      "payable": false,
      "stateMutability": "nonpayable",
      "type": "function"
    },
    {
      "constant": false,
      "inputs": [
        {
          "internalType": "uint256",
          "name": "productId",
          "type": "uint256"
        }
      ],
      "name": "acceptProduct",
      "outputs": [],
      "payable": false,
      "stateMutability": "nonpayable",
      "type": "function"
    },
    {
      "constant": false,
      "inputs": [
        {
          "internalType": "uint256",
          "name": "productId",
          "type": "uint256"
        }
      ],
      "name": "rejectProduct",
      "outputs": [],
      "payable": false,
      "stateMutability": "nonpayable",
      "type": "function"
    },
    {
      "constant": false,
      "inputs": [
        {
          "internalType": "uint256",
          "name": "productId",
          "type": "uint256"
        }
      ],
      "name": "voteToReject",
      "outputs": [],
      "payable": false,
      "stateMutability": "nonpayable",
      "type": "function"
    },
    {
      "constant": true,
      "inputs": [
        {
          "internalType": "uint256",
          "name": "productId",
          "type": "uint256"
        }
      ],
      "name": "isRejected",
      "outputs": [
        {
          "internalType": "bool",
          "name": "",
          "type": "bool"
        }
      ],
      "payable": false,
      "stateMutability": "view",
      "type": "function"
    },
    {
      "constant": true,
      "inputs": [
        {
          "internalType": "uint256",
          "name": "productId",
          "type": "uint256"
        }
      ],
      "name": "getProductStatus",
      "outputs": [
        {
          "internalType": "string",
          "name": "",
          "type": "string"
        }
      ],
      "payable": false,
      "stateMutability": "view",
      "type": "function"
    }
  ],
  "bytecode": "0x608060405234801561001057600080fd5b50611263806100206000396000f3fe608060405234801561001057600080fd5b50600436106100935760003560e01c806368c83b8b1161006657806368c83b8b1461039c5780637acc0b20146103ca578063a3ec138d14610566578063cf9398e6146105c2578063e0df7bb6146105f057610093565b8063098f076e146100985780630e34b00e146100de57806313f6b1bb146102c757806365078a0c1461036e575b600080fd5b6100c4600480360360208110156100ae57600080fd5b810190808035906020019092919050505061060e565b604051808215151515815260200191505060405180910390f35b6102c5600480360360608110156100f457600080fd5b810190808035906020019064010000000081111561011157600080fd5b82018360208201111561012357600080fd5b8035906020019184600183028401116401000000008311171561014557600080fd5b91908080601f016020809104026020016040519081016040528093929190818152602001838380828437600081840152601f19601f820116905080830192505050505050509192919290803590602001906401000000008111156101a857600080fd5b8201836020820111156101ba57600080fd5b803590602001918460018302840111640100000000831117156101dc57600080fd5b91908080601f016020809104026020016040519081016040528093929190818152602001838380828437600081840152601f19601f8201169050808301925050505050505091929192908035906020019064010000000081111561023f57600080fd5b82018360208201111561025157600080fd5b8035906020019184600183028401116401000000008311171561027357600080fd5b91908080601f016020809104026020016040519081016040528093929190818152602001838380828437600081840152601f19601f8201169050808301925050505050505091929192905050506106bc565b005b6102f3600480360360208110156102dd57600080fd5b8101908080359060200190929190505050610939565b6040518080602001828103825283818151815260200191508051906020019080838360005b83811015610333578082015181840152602081019050610318565b50505050905090810190601f1680156103605780820380516001836020036101000a031916815260200191505b509250505060405180910390f35b61039a6004803603602081101561038457600080fd5b8101908080359060200190929190505050610a43565b005b6103c8600480360360208110156103b257600080fd5b8101908080359060200190929190505050610bbb565b005b6103f6600480360360208110156103e057600080fd5b8101908080359060200190929190505050610d33565b604051808781526020018060200180602001806020018615151515815260200185151515158152602001848103845289818151815260200191508051906020019080838360005b8381101561045857808201518184015260208101905061043d565b50505050905090810190601f1680156104855780820380516001836020036101000a031916815260200191505b50848103835288818151815260200191508051906020019080838360005b838110156104be5780820151818401526020810190506104a3565b50505050905090810190601f1680156104eb5780820380516001836020036101000a031916815260200191505b50848103825287818151815260200191508051906020019080838360005b83811015610524578082015181840152602081019050610509565b50505050905090810190601f1680156105515780820380516001836020036101000a031916815260200191505b50995050505050505050505060405180910390f35b6105a86004803603602081101561057c57600080fd5b81019080803573ffffffffffffffffffffffffffffffffffffffff169060200190929190505050610f51565b604051808215151515815260200191505060405180910390f35b6105ee600480360360208110156105d857600080fd5b8101908080359060200190929190505050610f71565b005b6105f861115c565b6040518082815260200191505060405180910390f35b6000600160003373ffffffffffffffffffffffffffffffffffffffff1673ffffffffffffffffffffffffffffffffffffffff16815260200190815260200160002060009054906101000a900460ff168015610689575060008083815260200190815260200160002060040160009054906101000a900460ff16155b80156106b5575060008083815260200190815260200160002060040160019054906101000a900460ff16155b9050919050565b6002600081548092919060010191905055506040518060c00160405280600254815260200184815260200183815260200182815260200160001515815260200160001515815250600080600254815260200190815260200160002060008201518160000155602082015181600101908051906020019061073d929190611162565b50604082015181600201908051906020019061075a929190611162565b506060820151816003019080519060200190610777929190611162565b5060808201518160040160006101000a81548160ff02191690831515021790555060a08201518160040160016101000a81548160ff0219169083151502179055509050506002547f2ad97e35e5231a127d0d7b6cd0aa552ec47d312eff0ef74961fb06c5ae92688484848460405180806020018060200180602001848103845287818151815260200191508051906020019080838360005b8381101561082a57808201518184015260208101905061080f565b50505050905090810190601f1680156108575780820380516001836020036101000a031916815260200191505b50848103835286818151815260200191508051906020019080838360005b83811015610890578082015181840152602081019050610875565b50505050905090810190601f1680156108bd5780820380516001836020036101000a031916815260200191505b50848103825285818151815260200191508051906020019080838360005b838110156108f65780820151818401526020810190506108db565b50505050905090810190601f1680156109235780820380516001836020036101000a031916815260200191505b50965050505050505060405180910390a2505050565b606060008083815260200190815260200160002060040160019054906101000a900460ff16156109a0576040518060400160405280601881526020017f546869732070726f647563742069732072656a656374656400000000000000008152509050610a3e565b60008083815260200190815260200160002060040160009054906101000a900460ff1615610a05576040518060400160405280601881526020017f546869732070726f6475637420697320617070726f76656400000000000000008152509050610a3e565b6040518060400160405280601781526020017f546869732070726f647563742069732070656e64696e6700000000000000000081525090505b919050565b600081118015610a5557506002548111155b610ac7576040517f08c379a00000000000000000000000000000000000000000000000000000000081526004018080602001828103825260128152602001807f496e76616c69642070726f64756374204944000000000000000000000000000081525060200191505060405180910390fd5b60008082815260200190815260200160002060040160009054906101000a900460ff1615610b5d576040517f08c379a000000000000000000000000000000000000000000000000000000000815260040180806020018281038252601b8152602001807f50726f6475637420697320616c7265616479206163636570746564000000000081525060200191505060405180910390fd5b600160008083815260200190815260200160002060040160006101000a81548160ff021916908315150217905550807f89a3d07bdb1cc693925baeaf14e69014fe8350dff1f1ab97c47152ef9cd7ff2660405160405180910390a250565b600081118015610bcd57506002548111155b610c3f576040517f08c379a00000000000000000000000000000000000000000000000000000000081526004018080602001828103825260128152602001807f496e76616c69642070726f64756374204944000000000000000000000000000081525060200191505060405180910390fd5b60008082815260200190815260200160002060040160019054906101000a900460ff1615610cd5576040517f08c379a000000000000000000000000000000000000000000000000000000000815260040180806020018281038252601b8152602001807f50726f6475637420697320616c72656164792072656a6563746564000000000081525060200191505060405180910390fd5b600160008083815260200190815260200160002060040160016101000a81548160ff021916908315150217905550807f088129ec5fcc54d00d190e9d526f2c2858bda100d86b1cbc7a267dcd065f25db60405160405180910390a250565b6000602052806000526040600020600091509050806000015490806001018054600181600116156101000203166002900480601f016020809104026020016040519081016040528092919081815260200182805460018160011615610100020316600290048015610de55780601f10610dba57610100808354040283529160200191610de5565b820191906000526020600020905b815481529060010190602001808311610dc857829003601f168201915b505050505090806002018054600181600116156101000203166002900480601f016020809104026020016040519081016040528092919081815260200182805460018160011615610100020316600290048015610e835780601f10610e5857610100808354040283529160200191610e83565b820191906000526020600020905b815481529060010190602001808311610e6657829003601f168201915b505050505090806003018054600181600116156101000203166002900480601f016020809104026020016040519081016040528092919081815260200182805460018160011615610100020316600290048015610f215780601f10610ef657610100808354040283529160200191610f21565b820191906000526020600020905b815481529060010190602001808311610f0457829003601f168201915b5050505050908060040160009054906101000a900460ff16908060040160019054906101000a900460ff16905086565b60016020528060005260406000206000915054906101000a900460ff1681565b600081118015610f8357506002548111155b610ff5576040517f08c379a00000000000000000000000000000000000000000000000000000000081526004018080602001828103825260128152602001807f496e76616c69642070726f64756374204944000000000000000000000000000081525060200191505060405180910390fd5b600160003373ffffffffffffffffffffffffffffffffffffffff1673ffffffffffffffffffffffffffffffffffffffff16815260200190815260200160002060009054906101000a900460ff1615611098576040517f08c379a00000000000000000000000000000000000000000000000000000000081526004018080602001828103825260278152602001806112086027913960400191505060405180910390fd5b60018060003373ffffffffffffffffffffffffffffffffffffffff1673ffffffffffffffffffffffffffffffffffffffff16815260200190815260200160002060006101000a81548160ff0219169083151502179055506110f88161060e565b1561115957600160008083815260200190815260200160002060040160016101000a81548160ff021916908315150217905550807f088129ec5fcc54d00d190e9d526f2c2858bda100d86b1cbc7a267dcd065f25db60405160405180910390a25b50565b60025481565b828054600181600116156101000203166002900490600052602060002090601f016020900481019282601f106111a357805160ff19168380011785556111d1565b828001600101855582156111d1579182015b828111156111d05782518255916020019190600101906111b5565b5b5090506111de91906111e2565b5090565b61120491905b808211156112005760008160009055506001016111e8565b5090565b9056fe596f75206861766520616c726561647920766f74656420666f7220746869732070726f64756374a265627a7a723158208c452b63cd2baa7c295caf53e1d23ef986faac9145152fc66a91a17eac72884a64736f6c63430005100032",
  "source": "pragma solidity >=0.5.16;\r\n\r\ncontract AntiFake_test {\r\n\r\n    struct Product {\r\n        uint id;\r\n        string name;\r\n        string manufacturer;\r\n        string details;\r\n        bool accepted;\r\n        bool rejected;\r\n    }\r\n\r\n    mapping(uint => Product) public products;\r\n    mapping(address => bool) public voters;\r\n\r\n    uint public productsCount;\r\n\r\n    event ProductAdded(\r\n        uint indexed productId,\r\n        string name,\r\n        string manufacturer,\r\n        string details\r\n    );\r\n\r\n    event ProductAccepted(\r\n        uint indexed productId\r\n    );\r\n\r\n    event ProductRejected(\r\n        uint indexed productId\r\n    );\r\n\r\n    function addProduct(string memory name, string memory manufacturer, string memory details) public {\r\n        productsCount++;\r\n\r\n        products[productsCount] = Product({\r\n            id: productsCount,\r\n            name: name,\r\n            manufacturer: manufacturer,\r\n            details: details,\r\n            accepted: false,\r\n            rejected: false\r\n        });\r\n\r\n        emit ProductAdded(productsCount, name, manufacturer, details);\r\n    }\r\n\r\n    function acceptProduct(uint productId) public {\r\n        require(productId > 0 && productId <= productsCount, \"Invalid product ID\");\r\n        require(!products[productId].accepted, \"Product is already accepted\");\r\n\r\n        products[productId].accepted = true;\r\n\r\n        emit ProductAccepted(productId);\r\n    }\r\n\r\n    function rejectProduct(uint productId) public {\r\n        require(productId > 0 && productId <= productsCount, \"Invalid product ID\");\r\n        require(!products[productId].rejected, \"Product is already rejected\");\r\n\r\n        products[productId].rejected = true;\r\n\r\n        emit ProductRejected(productId);\r\n    }\r\n\r\n    function voteToReject(uint productId) public {\r\n        require(productId > 0 && productId <= productsCount, \"Invalid product ID\");\r\n        require(!voters[msg.sender], \"You have already voted for this product\");\r\n\r\n        voters[msg.sender] = true;\r\n\r\n        if (isRejected(productId)) {\r\n            products[productId].rejected = true;\r\n            emit ProductRejected(productId);\r\n        }\r\n    }\r\n\r\n    function isRejected(uint productId) public view returns (bool) {\r\n        return voters[msg.sender] && !products[productId].accepted && !products[productId].rejected;\r\n    }\r\n\r\n    function getProductStatus(uint productId) public view returns (string memory) {\r\n        if (products[productId].rejected) {\r\n            return \"This product is rejected\";\r\n        } else if (products[productId].accepted) {\r\n            return \"This product is approved\";\r\n        } else {\r\n            return \"This product is pending\";\r\n        }\r\n    }\r\n}\r\n",
  "sourcePath": "C:\\Users\\ACER\\Desktop\\Anti-Fake-Product-System\\blockchain\\src\\contracts\\AntiFake_try.sol",
  "compiler": {
    "name": "solc",
    "version": "0.5.16+commit.9c3226ce.Emscripten.clang"
  },
  "schemaVersion": "3.4.13",
  "updatedAt": "2023-03-17T13:46:24.654Z",
  "devdoc": {
    "methods": {}
  },
  "userdoc": {
    "methods": {}
  }
}